{
  "abi": [
    {
      "inputs": [
        {
          "internalType": "address",
          "name": "_eip712Transaltor",
          "type": "address"
        }
      ],
      "stateMutability": "nonpayable",
      "type": "constructor"
    },
    {
      "anonymous": false,
      "inputs": [
        {
          "indexed": true,
          "internalType": "address",
          "name": "owner",
          "type": "address"
        },
        {
          "indexed": true,
          "internalType": "address",
          "name": "spender",
          "type": "address"
        },
        {
          "indexed": false,
          "internalType": "uint256",
          "name": "value",
          "type": "uint256"
        }
      ],
      "name": "Approval",
      "type": "event"
    },
    {
      "anonymous": false,
      "inputs": [
        {
          "indexed": true,
          "internalType": "address",
          "name": "from",
          "type": "address"
        },
        {
          "indexed": true,
          "internalType": "address",
          "name": "to",
          "type": "address"
        },
        {
          "indexed": false,
          "internalType": "uint256",
          "name": "value",
          "type": "uint256"
        }
      ],
      "name": "Transfer",
      "type": "event"
    },
    {
      "inputs": [],
      "name": "DOMAIN_SEPARATOR",
      "outputs": [
        {
          "internalType": "bytes32",
          "name": "",
          "type": "bytes32"
        }
      ],
      "stateMutability": "view",
      "type": "function"
    },
    {
      "inputs": [
        {
          "internalType": "address",
          "name": "owner",
          "type": "address"
        },
        {
          "internalType": "address",
          "name": "spender",
          "type": "address"
        }
      ],
      "name": "allowance",
      "outputs": [
        {
          "internalType": "uint256",
          "name": "",
          "type": "uint256"
        }
      ],
      "stateMutability": "view",
      "type": "function"
    },
    {
      "inputs": [
        {
          "internalType": "address",
          "name": "spender",
          "type": "address"
        },
        {
          "internalType": "uint256",
          "name": "amount",
          "type": "uint256"
        }
      ],
      "name": "approve",
      "outputs": [
        {
          "internalType": "bool",
          "name": "",
          "type": "bool"
        }
      ],
      "stateMutability": "nonpayable",
      "type": "function"
    },
    {
      "inputs": [
        {
          "internalType": "address",
          "name": "account",
          "type": "address"
        }
      ],
      "name": "balanceOf",
      "outputs": [
        {
          "internalType": "uint256",
          "name": "",
          "type": "uint256"
        }
      ],
      "stateMutability": "view",
      "type": "function"
    },
    {
      "inputs": [],
      "name": "decimals",
      "outputs": [
        {
          "internalType": "uint8",
          "name": "",
          "type": "uint8"
        }
      ],
      "stateMutability": "view",
      "type": "function"
    },
    {
      "inputs": [
        {
          "internalType": "address",
          "name": "spender",
          "type": "address"
        },
        {
          "internalType": "uint256",
          "name": "subtractedValue",
          "type": "uint256"
        }
      ],
      "name": "decreaseAllowance",
      "outputs": [
        {
          "internalType": "bool",
          "name": "",
          "type": "bool"
        }
      ],
      "stateMutability": "nonpayable",
      "type": "function"
    },
    {
      "inputs": [],
      "name": "eip712TransalatorContract",
      "outputs": [
        {
          "internalType": "address",
          "name": "",
          "type": "address"
        }
      ],
      "stateMutability": "view",
      "type": "function"
    },
    {
      "inputs": [
        {
          "internalType": "bytes32",
          "name": "domainSeparator",
          "type": "bytes32"
        },
        {
          "internalType": "string",
          "name": "primaryType",
          "type": "string"
        },
        {
          "internalType": "bytes",
          "name": "encodedData",
          "type": "bytes"
        }
      ],
      "name": "evalEIP712Buffer",
      "outputs": [
        {
          "internalType": "string[]",
          "name": "",
          "type": "string[]"
        }
      ],
      "stateMutability": "view",
      "type": "function"
    },
    {
      "inputs": [
        {
          "internalType": "address",
          "name": "spender",
          "type": "address"
        },
        {
          "internalType": "uint256",
          "name": "addedValue",
          "type": "uint256"
        }
      ],
      "name": "increaseAllowance",
      "outputs": [
        {
          "internalType": "bool",
          "name": "",
          "type": "bool"
        }
      ],
      "stateMutability": "nonpayable",
      "type": "function"
    },
    {
      "inputs": [],
      "name": "mintToCaller",
      "outputs": [],
      "stateMutability": "nonpayable",
      "type": "function"
    },
    {
      "inputs": [],
      "name": "name",
      "outputs": [
        {
          "internalType": "string",
          "name": "",
          "type": "string"
        }
      ],
      "stateMutability": "view",
      "type": "function"
    },
    {
      "inputs": [
        {
          "internalType": "address",
          "name": "owner",
          "type": "address"
        }
      ],
      "name": "nonces",
      "outputs": [
        {
          "internalType": "uint256",
          "name": "",
          "type": "uint256"
        }
      ],
      "stateMutability": "view",
      "type": "function"
    },
    {
      "inputs": [],
      "name": "symbol",
      "outputs": [
        {
          "internalType": "string",
          "name": "",
          "type": "string"
        }
      ],
      "stateMutability": "view",
      "type": "function"
    },
    {
      "inputs": [],
      "name": "totalSupply",
      "outputs": [
        {
          "internalType": "uint256",
          "name": "",
          "type": "uint256"
        }
      ],
      "stateMutability": "view",
      "type": "function"
    },
    {
      "inputs": [
        {
          "internalType": "address",
          "name": "to",
          "type": "address"
        },
        {
          "internalType": "uint256",
          "name": "amount",
          "type": "uint256"
        }
      ],
      "name": "transfer",
      "outputs": [
        {
          "internalType": "bool",
          "name": "",
          "type": "bool"
        }
      ],
      "stateMutability": "nonpayable",
      "type": "function"
    },
    {
      "inputs": [
        {
          "internalType": "address",
          "name": "from",
          "type": "address"
        },
        {
          "internalType": "address",
          "name": "to",
          "type": "address"
        },
        {
          "internalType": "uint256",
          "name": "amount",
          "type": "uint256"
        }
      ],
      "name": "transferFrom",
      "outputs": [
        {
          "internalType": "bool",
          "name": "",
          "type": "bool"
        }
      ],
      "stateMutability": "nonpayable",
      "type": "function"
    },
    {
      "inputs": [
        {
          "internalType": "address",
          "name": "from",
          "type": "address"
        },
        {
          "internalType": "address",
          "name": "to",
          "type": "address"
        },
        {
          "internalType": "uint256",
          "name": "amount",
          "type": "uint256"
        },
        {
          "internalType": "uint256",
          "name": "deadline",
          "type": "uint256"
        },
        {
          "internalType": "uint8",
          "name": "r",
          "type": "uint8"
        },
        {
          "internalType": "bytes32",
          "name": "v",
          "type": "bytes32"
        },
        {
          "internalType": "bytes32",
          "name": "s",
          "type": "bytes32"
        }
      ],
      "name": "transferWithSig",
      "outputs": [],
      "stateMutability": "nonpayable",
      "type": "function"
    }
  ],
  "bytecode": {
    "object": "0x6101406040523480156200001257600080fd5b50604051620018bb380380620018bb833981016040819052620000359162000246565b60408051808201825260078082526626bcaa37b5b2b760c91b60208084018290528451808601865260018152603160f81b81830152855180870187529384528382019290925284518086019095526002855261135560f21b9085015291926003620000a183826200031c565b506004620000b082826200031c565b5050825160208085019190912083518483012060e08290526101008190524660a0818152604080517f8b73c3c69bb8fe3d512ecc4cf759cc79239f7b179b0ffacaa9a75d522b39400f81880181905281830187905260608201869052608082019490945230818401528151808203909301835260c0019052805194019390932091935091906080523060c052610120525050600680546001600160a01b0319166001600160a01b0385161790555062000174905033670de0b6b3a76400006200017b565b5062000410565b6001600160a01b038216620001d65760405162461bcd60e51b815260206004820152601f60248201527f45524332303a206d696e7420746f20746865207a65726f206164647265737300604482015260640160405180910390fd5b8060026000828254620001ea9190620003e8565b90915550506001600160a01b038216600081815260208181526040808320805486019055518481527fddf252ad1be2c89b69c2b068fc378daa952ba7f163c4a11628f55a4df523b3ef910160405180910390a35050565b505050565b6000602082840312156200025957600080fd5b81516001600160a01b03811681146200027157600080fd5b9392505050565b634e487b7160e01b600052604160045260246000fd5b600181811c90821680620002a357607f821691505b602082108103620002c457634e487b7160e01b600052602260045260246000fd5b50919050565b601f8211156200024157600081815260208120601f850160051c81016020861015620002f35750805b601f850160051c820191505b818110156200031457828155600101620002ff565b505050505050565b81516001600160401b0381111562000338576200033862000278565b62000350816200034984546200028e565b84620002ca565b602080601f8311600181146200038857600084156200036f5750858301515b600019600386901b1c1916600185901b17855562000314565b600085815260208120601f198616915b82811015620003b95788860151825594840194600190910190840162000398565b5085821015620003d85787850151600019600388901b60f8161c191681555b5050505050600190811b01905550565b808201808211156200040a57634e487b7160e01b600052601160045260246000fd5b92915050565b60805160a05160c05160e051610100516101205161145b620004606000396000610b4101526000610b9001526000610b6b01526000610ac401526000610aee01526000610b18015261145b6000f3fe608060405234801561001057600080fd5b506004361061010b5760003560e01c806370a08231116100a2578063a457c2d711610071578063a457c2d714610217578063a9059cbb1461022a578063b9c1bd581461023d578063dd62ed3e1461025d578063e22e7c9c1461027057600080fd5b806370a08231146101aa5780637ecebe00146101d357806391c0189b146101fc57806395d89b411461020f57600080fd5b8063313ce567116100de578063313ce567146101765780633644e51514610185578063395093511461018d57806349d64dc1146101a057600080fd5b806306fdde0314610110578063095ea7b31461012e57806318160ddd1461015157806323b872dd14610163575b600080fd5b61011861029b565b6040516101259190610f74565b60405180910390f35b61014161013c366004610faa565b61032d565b6040519015158152602001610125565b6002545b604051908152602001610125565b610141610171366004610fd4565b610347565b60405160128152602001610125565b61015561036b565b61014161019b366004610faa565b61037a565b6101a861039c565b005b6101556101b8366004611010565b6001600160a01b031660009081526020819052604090205490565b6101556101e1366004611010565b6001600160a01b031660009081526005602052604090205490565b6101a861020a36600461102b565b6103b0565b61011861053b565b610141610225366004610faa565b61054a565b610141610238366004610faa565b6105c5565b61025061024b36600461114b565b6105d3565b60405161012591906111e3565b61015561026b366004611245565b61074a565b600654610283906001600160a01b031681565b6040516001600160a01b039091168152602001610125565b6060600380546102aa90611278565b80601f01602080910402602001604051908101604052809291908181526020018280546102d690611278565b80156103235780601f106102f857610100808354040283529160200191610323565b820191906000526020600020905b81548152906001019060200180831161030657829003601f168201915b5050505050905090565b60003361033b818585610775565b60019150505b92915050565b600033610355858285610899565b610360858585610913565b506001949350505050565b6000610375610ab7565b905090565b60003361033b81858561038d838361074a565b61039791906112c8565b610775565b6103ae33670de0b6b3a7640000610bde565b565b834211156104055760405162461bcd60e51b815260206004820152601d60248201527f5472616e736665725369673a206578706972656420646561646c696e6500000060448201526064015b60405180910390fd5b6001600160a01b038716600090815260056020526040812080547f4144f681a2e4d6d2035dcbc0720f95d08cc1779083c71290e8a4bb4c1529f59e918a918a918a919086610452836112db565b909155506040805160208101969096526001600160a01b0394851690860152929091166060840152608083015260a082015260c0810186905260e00160405160208183030381529060405280519060200120905060006104b182610c9d565b905060006104c182878787610ceb565b9050896001600160a01b0316816001600160a01b0316146105245760405162461bcd60e51b815260206004820152601960248201527f5472616e736665725369673a20756e617574686f72697a65640000000000000060448201526064016103fc565b61052f8a8a8a610913565b50505050505050505050565b6060600480546102aa90611278565b60003381610558828661074a565b9050838110156105b85760405162461bcd60e51b815260206004820152602560248201527f45524332303a2064656372656173656420616c6c6f77616e63652062656c6f77604482015264207a65726f60d81b60648201526084016103fc565b6103608286868403610775565b60003361033b818585610913565b604051672a3930b739b332b960c11b6020820152606090602801604051602081830303815290604052805190602001208360405160200161061491906112f4565b60405160208183030381529060405280519060200120146106775760405162461bcd60e51b815260206004820152601d60248201527f4d79546f6b656e3a20696e76616c6964207072696d617279207479706500000060448201526064016103fc565b61067f610ab7565b84146106cd5760405162461bcd60e51b815260206004820152601760248201527f4d79546f6b656e3a20496e76616c696420646f6d61696e00000000000000000060448201526064016103fc565b60065460405163f42e5f2560e01b81526001600160a01b039091169063f42e5f25906106fd908590600401610f74565b600060405180830381865afa15801561071a573d6000803e3d6000fd5b505050506040513d6000823e601f3d908101601f191682016040526107429190810190611310565b949350505050565b6001600160a01b03918216600090815260016020908152604080832093909416825291909152205490565b6001600160a01b0383166107d75760405162461bcd60e51b8152602060048201526024808201527f45524332303a20617070726f76652066726f6d20746865207a65726f206164646044820152637265737360e01b60648201526084016103fc565b6001600160a01b0382166108385760405162461bcd60e51b815260206004820152602260248201527f45524332303a20617070726f766520746f20746865207a65726f206164647265604482015261737360f01b60648201526084016103fc565b6001600160a01b0383811660008181526001602090815260408083209487168084529482529182902085905590518481527f8c5be1e5ebec7d5bd14f71427d1e84f3dd0314c0f7b2291e5b200ac8c7c3b925910160405180910390a3505050565b60006108a5848461074a565b9050600019811461090d57818110156109005760405162461bcd60e51b815260206004820152601d60248201527f45524332303a20696e73756666696369656e7420616c6c6f77616e636500000060448201526064016103fc565b61090d8484848403610775565b50505050565b6001600160a01b0383166109775760405162461bcd60e51b815260206004820152602560248201527f45524332303a207472616e736665722066726f6d20746865207a65726f206164604482015264647265737360d81b60648201526084016103fc565b6001600160a01b0382166109d95760405162461bcd60e51b815260206004820152602360248201527f45524332303a207472616e7366657220746f20746865207a65726f206164647260448201526265737360e81b60648201526084016103fc565b6001600160a01b03831660009081526020819052604090205481811015610a515760405162461bcd60e51b815260206004820152602660248201527f45524332303a207472616e7366657220616d6f756e7420657863656564732062604482015265616c616e636560d01b60648201526084016103fc565b6001600160a01b03848116600081815260208181526040808320878703905593871680835291849020805487019055925185815290927fddf252ad1be2c89b69c2b068fc378daa952ba7f163c4a11628f55a4df523b3ef910160405180910390a361090d565b6000306001600160a01b037f000000000000000000000000000000000000000000000000000000000000000016148015610b1057507f000000000000000000000000000000000000000000000000000000000000000046145b15610b3a57507f000000000000000000000000000000000000000000000000000000000000000090565b50604080517f00000000000000000000000000000000000000000000000000000000000000006020808301919091527f0000000000000000000000000000000000000000000000000000000000000000828401527f000000000000000000000000000000000000000000000000000000000000000060608301524660808301523060a0808401919091528351808403909101815260c0909201909252805191012090565b6001600160a01b038216610c345760405162461bcd60e51b815260206004820152601f60248201527f45524332303a206d696e7420746f20746865207a65726f20616464726573730060448201526064016103fc565b8060026000828254610c4691906112c8565b90915550506001600160a01b038216600081815260208181526040808320805486019055518481527fddf252ad1be2c89b69c2b068fc378daa952ba7f163c4a11628f55a4df523b3ef910160405180910390a35050565b6000610341610caa610ab7565b8360405161190160f01b6020820152602281018390526042810182905260009060620160405160208183030381529060405280519060200120905092915050565b6000806000610cfc87878787610d13565b91509150610d0981610dd7565b5095945050505050565b6000807f7fffffffffffffffffffffffffffffff5d576e7357a4501ddfe92f46681b20a0831115610d4a5750600090506003610dce565b6040805160008082526020820180845289905260ff881692820192909252606081018690526080810185905260019060a0016020604051602081039080840390855afa158015610d9e573d6000803e3d6000fd5b5050604051601f1901519150506001600160a01b038116610dc757600060019250925050610dce565b9150600090505b94509492505050565b6000816004811115610deb57610deb61140f565b03610df35750565b6001816004811115610e0757610e0761140f565b03610e545760405162461bcd60e51b815260206004820152601860248201527f45434453413a20696e76616c6964207369676e6174757265000000000000000060448201526064016103fc565b6002816004811115610e6857610e6861140f565b03610eb55760405162461bcd60e51b815260206004820152601f60248201527f45434453413a20696e76616c6964207369676e6174757265206c656e6774680060448201526064016103fc565b6003816004811115610ec957610ec961140f565b03610f215760405162461bcd60e51b815260206004820152602260248201527f45434453413a20696e76616c6964207369676e6174757265202773272076616c604482015261756560f01b60648201526084016103fc565b50565b60005b83811015610f3f578181015183820152602001610f27565b50506000910152565b60008151808452610f60816020860160208601610f24565b601f01601f19169290920160200192915050565b602081526000610f876020830184610f48565b9392505050565b80356001600160a01b0381168114610fa557600080fd5b919050565b60008060408385031215610fbd57600080fd5b610fc683610f8e565b946020939093013593505050565b600080600060608486031215610fe957600080fd5b610ff284610f8e565b925061100060208501610f8e565b9150604084013590509250925092565b60006020828403121561102257600080fd5b610f8782610f8e565b600080600080600080600060e0888a03121561104657600080fd5b61104f88610f8e565b965061105d60208901610f8e565b95506040880135945060608801359350608088013560ff8116811461108157600080fd5b9699959850939692959460a0840135945060c09093013592915050565b634e487b7160e01b600052604160045260246000fd5b604051601f8201601f1916810167ffffffffffffffff811182821017156110dd576110dd61109e565b604052919050565b600067ffffffffffffffff8211156110ff576110ff61109e565b50601f01601f191660200190565b600061112061111b846110e5565b6110b4565b905082815283838301111561113457600080fd5b828260208301376000602084830101529392505050565b60008060006060848603121561116057600080fd5b83359250602084013567ffffffffffffffff8082111561117f57600080fd5b818601915086601f83011261119357600080fd5b6111a28783356020850161110d565b935060408601359150808211156111b857600080fd5b508401601f810186136111ca57600080fd5b6111d98682356020840161110d565b9150509250925092565b6000602080830181845280855180835260408601915060408160051b870101925083870160005b8281101561123857603f19888603018452611226858351610f48565b9450928501929085019060010161120a565b5092979650505050505050565b6000806040838503121561125857600080fd5b61126183610f8e565b915061126f60208401610f8e565b90509250929050565b600181811c9082168061128c57607f821691505b6020821081036112ac57634e487b7160e01b600052602260045260246000fd5b50919050565b634e487b7160e01b600052601160045260246000fd5b80820180821115610341576103416112b2565b6000600182016112ed576112ed6112b2565b5060010190565b60008251611306818460208701610f24565b9190910192915050565b6000602080838503121561132357600080fd5b825167ffffffffffffffff8082111561133b57600080fd5b818501915085601f83011261134f57600080fd5b8151818111156113615761136161109e565b8060051b6113708582016110b4565b918252838101850191858101908984111561138a57600080fd5b86860192505b83831015611402578251858111156113a85760008081fd5b8601603f81018b136113ba5760008081fd5b8781015160406113cc61111b836110e5565b8281528d828486010111156113e15760008081fd5b6113f0838c8301848701610f24565b85525050509186019190860190611390565b9998505050505050505050565b634e487b7160e01b600052602160045260246000fdfea2646970667358221220e0a94af6aeed3c9ae39c27c2060db72746d02d23fcabe882a07a87df023594ec64736f6c63430008110033",
    "linkReferences": {}
  },
  "methodIdentifiers": {
    "DOMAIN_SEPARATOR()": "3644e515",
    "allowance(address,address)": "dd62ed3e",
    "approve(address,uint256)": "095ea7b3",
    "balanceOf(address)": "70a08231",
    "decimals()": "313ce567",
    "decreaseAllowance(address,uint256)": "a457c2d7",
    "eip712TransalatorContract()": "e22e7c9c",
    "evalEIP712Buffer(bytes32,string,bytes)": "b9c1bd58",
    "increaseAllowance(address,uint256)": "39509351",
    "mintToCaller()": "49d64dc1",
    "name()": "06fdde03",
    "nonces(address)": "7ecebe00",
    "symbol()": "95d89b41",
    "totalSupply()": "18160ddd",
    "transfer(address,uint256)": "a9059cbb",
    "transferFrom(address,address,uint256)": "23b872dd",
    "transferWithSig(address,address,uint256,uint256,uint8,bytes32,bytes32)": "91c0189b"
  },
  "id": 25
}