{
  "abi": [
    {
      "inputs": [
        {
          "internalType": "address",
          "name": "_translator",
          "type": "address"
        }
      ],
      "stateMutability": "nonpayable",
      "type": "constructor"
    },
    {
      "inputs": [],
      "name": "DOMAIN_SEPARATOR",
      "outputs": [
        {
          "internalType": "bytes32",
          "name": "",
          "type": "bytes32"
        }
      ],
      "stateMutability": "view",
      "type": "function"
    },
    {
      "inputs": [],
      "name": "eip712TransalatorContract",
      "outputs": [
        {
          "internalType": "address",
          "name": "",
          "type": "address"
        }
      ],
      "stateMutability": "view",
      "type": "function"
    },
    {
      "inputs": [
        {
          "internalType": "bytes32",
          "name": "domainSeparator",
          "type": "bytes32"
        },
        {
          "internalType": "string",
          "name": "primaryType",
          "type": "string"
        },
        {
          "internalType": "bytes",
          "name": "encodedSignature",
          "type": "bytes"
        }
      ],
      "name": "evalEIP712Buffer",
      "outputs": [
        {
          "internalType": "string[]",
          "name": "",
          "type": "string[]"
        }
      ],
      "stateMutability": "view",
      "type": "function"
    }
  ],
  "bytecode": {
    "object": "0x60a060405234801561001057600080fd5b5060405161072c38038061072c83398101604081905261002f91610040565b6001600160a01b0316608052610070565b60006020828403121561005257600080fd5b81516001600160a01b038116811461006957600080fd5b9392505050565b60805161069b61009160003960008181608601526102b7015261069b6000f3fe608060405234801561001057600080fd5b50600436106100415760003560e01c80633644e51514610046578063b9c1bd5814610061578063e22e7c9c14610081575b600080fd5b61004e6100c0565b6040519081526020015b60405180910390f35b61007461006f3660046103e6565b610190565b60405161005891906104ce565b6100a87f000000000000000000000000000000000000000000000000000000000000000081565b6040516001600160a01b039091168152602001610058565b604080518082018252600781526614d9585c1bdc9d60ca1b602091820152815180830183526003815262312e3160e81b9082015281517f8b73c3c69bb8fe3d512ecc4cf759cc79239f7b179b0ffacaa9a75d522b39400f818301527f32b5c112df393a49218d7552f96b2eeb829dfb4272f4f24eef510a586b85feef818401527f722c0e0c80487266e8c6a45e3a1a803aab23378a9c32e6ebe029d4fad7bfc96560608201524660808201523060a0808301919091528351808303909101815260c0909101909252815191012090565b6040516e4f72646572436f6d706f6e656e747360881b6020820152606090602f0160405160208183030381529060405280519060200120836040516020016101d89190610530565b604051602081830303815290604052805190602001201461024a5760405162461bcd60e51b815260206004820152602160248201527f536561506f72744d6f636b3a20496e76616c6964207072696d617279207479706044820152606560f81b60648201526084015b60405180910390fd5b6102526100c0565b84146102a05760405162461bcd60e51b815260206004820152601b60248201527f536561506f72744d6f636b3a20496e76616c696420646f6d61696e00000000006044820152606401610241565b60405163f42e5f2560e01b81526001600160a01b037f0000000000000000000000000000000000000000000000000000000000000000169063f42e5f25906102ec90859060040161054c565b600060405180830381865afa158015610309573d6000803e3d6000fd5b505050506040513d6000823e601f3d908101601f191682016040526103319190810190610566565b949350505050565b634e487b7160e01b600052604160045260246000fd5b604051601f8201601f1916810167ffffffffffffffff8111828210171561037857610378610339565b604052919050565b600067ffffffffffffffff82111561039a5761039a610339565b50601f01601f191660200190565b60006103bb6103b684610380565b61034f565b90508281528383830111156103cf57600080fd5b828260208301376000602084830101529392505050565b6000806000606084860312156103fb57600080fd5b83359250602084013567ffffffffffffffff8082111561041a57600080fd5b818601915086601f83011261042e57600080fd5b61043d878335602085016103a8565b9350604086013591508082111561045357600080fd5b508401601f8101861361046557600080fd5b610474868235602084016103a8565b9150509250925092565b60005b83811015610499578181015183820152602001610481565b50506000910152565b600081518084526104ba81602086016020860161047e565b601f01601f19169290920160200192915050565b6000602080830181845280855180835260408601915060408160051b870101925083870160005b8281101561052357603f198886030184526105118583516104a2565b945092850192908501906001016104f5565b5092979650505050505050565b6000825161054281846020870161047e565b9190910192915050565b60208152600061055f60208301846104a2565b9392505050565b6000602080838503121561057957600080fd5b825167ffffffffffffffff8082111561059157600080fd5b818501915085601f8301126105a557600080fd5b8151818111156105b7576105b7610339565b8060051b6105c685820161034f565b91825283810185019185810190898411156105e057600080fd5b86860192505b83831015610658578251858111156105fe5760008081fd5b8601603f81018b136106105760008081fd5b8781015160406106226103b683610380565b8281528d828486010111156106375760008081fd5b610646838c830184870161047e565b855250505091860191908601906105e6565b999850505050505050505056fea2646970667358221220250fb9e00a335fe253e1f89ab65d7e5ccbc439cd293ac3e23dad9fc711e30a9f64736f6c63430008110033",
    "linkReferences": {}
  },
  "methodIdentifiers": {
    "DOMAIN_SEPARATOR()": "3644e515",
    "eip712TransalatorContract()": "e22e7c9c",
    "evalEIP712Buffer(bytes32,string,bytes)": "b9c1bd58"
  },
  "id": 29
}