{
  "abi": [
    {
      "inputs": [
        {
          "internalType": "bytes",
          "name": "signature",
          "type": "bytes"
        }
      ],
      "name": "parseSig",
      "outputs": [
        {
          "internalType": "string[]",
          "name": "sigTranslatedMessage",
          "type": "string[]"
        }
      ],
      "stateMutability": "view",
      "type": "function"
    }
  ],
  "bytecode": {
    "object": "0x6101406040526098608081815290610a2060a03960009061002090826100d2565b5034801561002d57600080fd5b50610191565b634e487b7160e01b600052604160045260246000fd5b600181811c9082168061005d57607f821691505b60208210810361007d57634e487b7160e01b600052602260045260246000fd5b50919050565b601f8211156100cd57600081815260208120601f850160051c810160208610156100aa5750805b601f850160051c820191505b818110156100c9578281556001016100b6565b5050505b505050565b81516001600160401b038111156100eb576100eb610033565b6100ff816100f98454610049565b84610083565b602080601f831160018114610134576000841561011c5750858301515b600019600386901b1c1916600185901b1785556100c9565b600085815260208120601f198616915b8281101561016357888601518255948401946001909101908401610144565b50858210156101815787850151600019600388901b60f8161c191681555b5050505050600190811b01905550565b610880806101a06000396000f3fe608060405234801561001057600080fd5b506004361061002b5760003560e01c8063f42e5f2514610030575b600080fd5b61004361003e366004610516565b610059565b60405161005091906105eb565b60405180910390f35b60606000828060200190518101906100719190610681565b60408051600380825260808201909252919250816020015b6060815260200190600190039081610089579050509150600080546100ad906106fd565b80601f01602080910402602001604051908101604052809291908181526020018280546100d9906106fd565b80156101265780601f106100fb57610100808354040283529160200191610126565b820191906000526020600020905b81548152906001019060200180831161010957829003601f168201915b50505050508260008151811061013e5761013e610737565b602002602001018190525061015681608001516101d2565b8260018151811061016957610169610737565b60200260200101819052506101818160200151610265565b61018e82604001516101d2565b60405160200161019f92919061074d565b604051602081830303815290604052826002815181106101c1576101c1610737565b602002602001018190525050919050565b606060006101df83610281565b600101905060008167ffffffffffffffff8111156101ff576101ff610500565b6040519080825280601f01601f191660200182016040528015610229576020820181803683370190505b5090508181016020015b600019016f181899199a1a9b1b9c1cb0b131b232b360811b600a86061a8153600a850494508461023357509392505050565b606061027b6001600160a01b0383166014610359565b92915050565b60008072184f03e93ff9f4daa797ed6e38ed64bf6a1f0160401b83106102c05772184f03e93ff9f4daa797ed6e38ed64bf6a1f0160401b830492506040015b6d04ee2d6d415b85acef810000000083106102ec576d04ee2d6d415b85acef8100000000830492506020015b662386f26fc10000831061030a57662386f26fc10000830492506010015b6305f5e1008310610322576305f5e100830492506008015b612710831061033657612710830492506004015b60648310610348576064830492506002015b600a831061027b5760010192915050565b60606000610368836002610809565b610373906002610820565b67ffffffffffffffff81111561038b5761038b610500565b6040519080825280601f01601f1916602001820160405280156103b5576020820181803683370190505b509050600360fc1b816000815181106103d0576103d0610737565b60200101906001600160f81b031916908160001a905350600f60fb1b816001815181106103ff576103ff610737565b60200101906001600160f81b031916908160001a9053506000610423846002610809565b61042e906001610820565b90505b60018111156104a6576f181899199a1a9b1b9c1cb0b131b232b360811b85600f166010811061046257610462610737565b1a60f81b82828151811061047857610478610737565b60200101906001600160f81b031916908160001a90535060049490941c9361049f81610833565b9050610431565b5083156104f95760405162461bcd60e51b815260206004820181905260248201527f537472696e67733a20686578206c656e67746820696e73756666696369656e74604482015260640160405180910390fd5b9392505050565b634e487b7160e01b600052604160045260246000fd5b60006020828403121561052857600080fd5b813567ffffffffffffffff8082111561054057600080fd5b818401915084601f83011261055457600080fd5b81358181111561056657610566610500565b604051601f8201601f19908116603f0116810190838211818310171561058e5761058e610500565b816040528281528760208487010111156105a757600080fd5b826020860160208301376000928101602001929092525095945050505050565b60005b838110156105e25781810151838201526020016105ca565b50506000910152565b6000602080830181845280855180835260408601915060408160051b870101925083870160005b8281101561065857878503603f1901845281518051808752610639818989018a85016105c7565b601f01601f191695909501860194509285019290850190600101610612565b5092979650505050505050565b80516001600160a01b038116811461067c57600080fd5b919050565b600060a0828403121561069357600080fd5b60405160a0810181811067ffffffffffffffff821117156106b6576106b6610500565b6040526106c283610665565b81526106d060208401610665565b60208201526040830151604082015260608301516060820152608083015160808201528091505092915050565b600181811c9082168061071157607f821691505b60208210810361073157634e487b7160e01b600052602260045260246000fd5b50919050565b634e487b7160e01b600052603260045260246000fd5b7f4279207369676e696e672074686973206d65737361676520796f7520616c6c6f81526103b960f51b6020820152600083516107908160228501602088016105c7565b6c0103a37903a3930b739b332b91609d1b60229184019182015283516107bd81602f8401602088016105c7565b7f206f66204d79546f6b656e2066726f6d20796f7572206163636f756e742e0000602f9290910191820152604d01949350505050565b634e487b7160e01b600052601160045260246000fd5b808202811582820484141761027b5761027b6107f3565b8082018082111561027b5761027b6107f3565b600081610842576108426107f3565b50600019019056fea26469706673582212206d5503bc6d0060ae5d2030c9dc1d9143c1e73e2c5fabdd3f67c77c3fc0beb8fc64736f6c6343000811003354686973206973204d79546f6b656e207472616e7366657257697468536967206d6573736167652c206279207369676e696e672074686973206d65737361676520796f752061726520617574686f72697a696e6720746865207472616e73666572206f66204d79546f6b656e2066726f6d20796f7572206163636f756e7420746f2074686520726563697069656e74206163636f756e742e",
    "linkReferences": {}
  },
  "methodIdentifiers": {
    "parseSig(bytes)": "f42e5f25"
  },
  "id": 26
}