{
  "abi": [
    {
      "inputs": [
        {
          "internalType": "bytes",
          "name": "signature",
          "type": "bytes"
        }
      ],
      "name": "parseSig",
      "outputs": [
        {
          "internalType": "string[]",
          "name": "sigTranslatedMessage",
          "type": "string[]"
        }
      ],
      "stateMutability": "view",
      "type": "function"
    }
  ],
  "bytecode": {
    "object": "0x7f454950373132446f6d61696e28737472696e67206e616d652c737472696e672060a0527f76657273696f6e2c75696e7432353620636861696e49642c616464726573732060c05271766572696679696e67436f6e74726163742960701b60e05260526080527f8b73c3c69bb8fe3d512ecc4cf759cc79239f7b179b0ffacaa9a75d522b39400f600055610192604052606960f281815290620013ad61011239600190620000ae908262000168565b50348015620000bc57600080fd5b5062000234565b634e487b7160e01b600052604160045260246000fd5b600181811c90821680620000ee57607f821691505b6020821081036200010f57634e487b7160e01b600052602260045260246000fd5b50919050565b601f8211156200016357600081815260208120601f850160051c810160208610156200013e5750805b601f850160051c820191505b818110156200015f578281556001016200014a565b5050505b505050565b81516001600160401b03811115620001845762000184620000c3565b6200019c81620001958454620000d9565b8462000115565b602080601f831160018114620001d45760008415620001bb5750858301515b600019600386901b1c1916600185901b1785556200015f565b600085815260208120601f198616915b828110156200020557888601518255948401946001909101908401620001e4565b5085821015620002245787850151600019600388901b60f8161c191681555b5050505050600190811b01905550565b61116980620002446000396000f3fe608060405234801561001057600080fd5b506004361061002b5760003560e01c8063f42e5f2514610030575b600080fd5b61004361003e366004610b75565b610059565b6040516100509190610c2d565b60405180910390f35b60606000828060200190518101906100719190610e86565b905060008160400151516001600160401b0381111561009257610092610ac2565b6040519080825280602002602001820160405280156100d757816020015b60408051808201909152600080825260208201528152602001906001900390816100b05790505b50905060008260600151516001600160401b038111156100f9576100f9610ac2565b60405190808252806020026020018201604052801561013e57816020015b60408051808201909152600080825260208201528152602001906001900390816101175790505b50905060008360400151516001600160401b0381111561016057610160610ac2565b604051908082528060200260200182016040528015610189578160200160208202803683370190505b50905060008460600151516001600160401b038111156101ab576101ab610ac2565b6040519080825280602002602001820160405280156101d4578160200160208202803683370190505b5090506000805b8660400151518110156103735760006102168860400151838151811061020357610203610f8b565b60200260200101516020015184876107ec565b9050845160016102269190610fb7565b8114610280578760400151828151811061024257610242610f8b565b60200260200101516060015187828151811061026057610260610f8b565b60200260200101516000018181516102789190610fb7565b905250610360565b8760400151828151811061029657610296610f8b565b6020026020010151602001518584815181106102b4576102b4610f8b565b60200260200101906001600160a01b031690816001600160a01b0316815250506040518060400160405280896040015184815181106102f5576102f5610f8b565b60200260200101516060015181526020018960400151848151811061031c5761031c610f8b565b6020026020010151602001516001600160a01b031681525087848151811061034657610346610f8b565b6020026020010181905250828061035c90610fca565b9350505b508061036b81610fca565b9150506101db565b506000805b87606001515181101561053c578760600151818151811061039b5761039b610f8b565b602002602001015160a001516001600160a01b031688600001516001600160a01b03160361052a5760006103de8960600151838151811061020357610203610f8b565b9050845160016103ee9190610fb7565b8114610448578860600151828151811061040a5761040a610f8b565b60200260200101516060015187828151811061042857610428610f8b565b60200260200101516000018181516104409190610fb7565b905250610528565b8860600151828151811061045e5761045e610f8b565b60200260200101516020015185848151811061047c5761047c610f8b565b60200260200101906001600160a01b031690816001600160a01b03168152505060405180604001604052808a6060015184815181106104bd576104bd610f8b565b60200260200101516060015181526020018a6060015184815181106104e4576104e4610f8b565b6020026020010151602001516001600160a01b031681525087848151811061050e5761050e610f8b565b6020026020010181905250828061052490610fca565b9350505b505b8061053481610fca565b915050610378565b506105478183610fb7565b610552906002610fb7565b6001600160401b0381111561056957610569610ac2565b60405190808252806020026020018201604052801561059c57816020015b60608152602001906001900390816105875790505b509750600180546105ac90610fe3565b80601f01602080910402602001604051908101604052809291908181526020018280546105d890610fe3565b80156106255780601f106105fa57610100808354040283529160200191610625565b820191906000526020600020905b81548152906001019060200180831161060857829003601f168201915b50505050508860008151811061063d5761063d610f8b565b60200260200101819052506106558760c0015161085b565b604051602001610665919061101d565b6040516020818303038152906040528860018151811061068757610687610f8b565b602002602001018190525060005b81811015610744576106c38682815181106106b2576106b2610f8b565b60200260200101516000015161085b565b6106e98783815181106106d8576106d8610f8b565b6020026020010151602001516108ed565b6040516020016106fa929190611062565b60408051601f1981840301815291905289610716836002610fb7565b8151811061072657610726610f8b565b6020026020010181905250808061073c90610fca565b915050610695565b5060005b828110156107df576107658782815181106106b2576106b2610f8b565b61077a8883815181106106d8576106d8610f8b565b60405160200161078b9291906110be565b60408051601f19818403018152919052896107a68484610fb7565b6107b1906002610fb7565b815181106107c1576107c1610f8b565b602002602001018190525080806107d790610fca565b915050610748565b5050505050505050919050565b6000805b838110156108435782818151811061080a5761080a610f8b565b60200260200101516001600160a01b0316856001600160a01b031603610831579050610854565b8061083b81610fca565b9150506107f0565b508151610851906001610fb7565b90505b9392505050565b60606000610868836109e9565b60010190506000816001600160401b0381111561088757610887610ac2565b6040519080825280601f01601f1916602001820160405280156108b1576020820181803683370190505b5090508181016020015b600019016f181899199a1a9b1b9c1cb0b131b232b360811b600a86061a8153600a85049450846108bb57509392505050565b60606001600160a01b03821661091c57505060408051808201909152600381526208aa8960eb1b602082015290565b60408051600481526024810182526020810180516001600160e01b03166306fdde0360e01b179052905160009182916001600160a01b0386169161095f91611117565b600060405180830381855afa9150503d806000811461099a576040519150601f19603f3d011682016040523d82523d6000602084013e61099f565b606091505b50915091508180156109b2575060008151115b156109be579392505050565b50506040805180820190915260078152662ab735b737bbb760c91b602082015292915050565b919050565b60008072184f03e93ff9f4daa797ed6e38ed64bf6a1f0160401b8310610a285772184f03e93ff9f4daa797ed6e38ed64bf6a1f0160401b830492506040015b6d04ee2d6d415b85acef81000000008310610a54576d04ee2d6d415b85acef8100000000830492506020015b662386f26fc100008310610a7257662386f26fc10000830492506010015b6305f5e1008310610a8a576305f5e100830492506008015b6127108310610a9e57612710830492506004015b60648310610ab0576064830492506002015b600a8310610abc576001015b92915050565b634e487b7160e01b600052604160045260246000fd5b60405160a081016001600160401b0381118282101715610afa57610afa610ac2565b60405290565b60405160c081016001600160401b0381118282101715610afa57610afa610ac2565b60405161016081016001600160401b0381118282101715610afa57610afa610ac2565b604051601f8201601f191681016001600160401b0381118282101715610b6d57610b6d610ac2565b604052919050565b60006020808385031215610b8857600080fd5b82356001600160401b0380821115610b9f57600080fd5b818501915085601f830112610bb357600080fd5b813581811115610bc557610bc5610ac2565b610bd7601f8201601f19168501610b45565b91508082528684828501011115610bed57600080fd5b8084840185840137600090820190930192909252509392505050565b60005b83811015610c24578181015183820152602001610c0c565b50506000910152565b6000602080830181845280855180835260408601915060408160051b870101925083870160005b82811015610c9a57878503603f1901845281518051808752610c7b818989018a8501610c09565b601f01601f191695909501860194509285019290850190600101610c54565b5092979650505050505050565b6001600160a01b0381168114610cbc57600080fd5b50565b80516109e481610ca7565b60006001600160401b03821115610ce357610ce3610ac2565b5060051b60200190565b8051600681106109e457600080fd5b600082601f830112610d0d57600080fd5b81516020610d22610d1d83610cca565b610b45565b82815260a09283028501820192828201919087851115610d4157600080fd5b8387015b85811015610dac5781818a031215610d5d5760008081fd5b610d65610ad8565b610d6e82610ced565b815285820151610d7d81610ca7565b818701526040828101519082015260608083015190820152608080830151908201528452928401928101610d45565b5090979650505050505050565b600082601f830112610dca57600080fd5b81516020610dda610d1d83610cca565b82815260c09283028501820192828201919087851115610df957600080fd5b8387015b85811015610dac5781818a031215610e155760008081fd5b610e1d610b00565b610e2682610ced565b815285820151610e3581610ca7565b8187015260408281015190820152606080830151908201526080808301519082015260a080830151610e6681610ca7565b908201528452928401928101610dfd565b8051600481106109e457600080fd5b600060208284031215610e9857600080fd5b81516001600160401b0380821115610eaf57600080fd5b908301906101608286031215610ec457600080fd5b610ecc610b22565b610ed583610cbf565b8152610ee360208401610cbf565b6020820152604083015182811115610efa57600080fd5b610f0687828601610cfc565b604083015250606083015182811115610f1e57600080fd5b610f2a87828601610db9565b606083015250610f3c60808401610e77565b608082015260a0838101519082015260c0808401519082015260e08084015190820152610100808401519082015261012080840151908201526101409283015192810192909252509392505050565b634e487b7160e01b600052603260045260246000fd5b634e487b7160e01b600052601160045260246000fd5b80820180821115610abc57610abc610fa1565b600060018201610fdc57610fdc610fa1565b5060010190565b600181811c90821680610ff757607f821691505b60208210810361101757634e487b7160e01b600052602260045260246000fd5b50919050565b7f546865207369676e61747572652069732076616c696420756e74696c2000000081526000825161105581601d850160208701610c09565b91909101601d0192915050565b7002cb7ba903bb4b636103932b1b2b4bb329607d1b81526000835161108e816011850160208801610c09565b6301037b3160e51b60119184019182015283516110b2816015840160208801610c09565b01601501949350505050565b6d02cb7ba903bb4b6361039b2b732160951b8152600083516110e781600e850160208801610c09565b6301037b3160e51b600e91840191820152835161110b816012840160208801610c09565b01601201949350505050565b60008251611129818460208701610c09565b919091019291505056fea2646970667358221220ede732b0f26c15d4c0188d5ffcb689b897166a14cb5862ec40aeb5e2b6cc9f6a64736f6c6343000811003354686973206973206120536561706f7274206c697374696e67206d6573736167652c206d6f73746c792075736564206279204f70656e53656120446170702c206265206177617265206f662074686520706f74656e7469616c2062616c616e6365206368616e676573",
    "linkReferences": {}
  },
  "methodIdentifiers": {
    "parseSig(bytes)": "f42e5f25"
  },
  "id": 28
}