{
  "abi": [
    {
      "inputs": [],
      "name": "generateOrder",
      "outputs": [
        {
          "components": [
            {
              "internalType": "address",
              "name": "offerer",
              "type": "address"
            },
            {
              "internalType": "address",
              "name": "zone",
              "type": "address"
            },
            {
              "components": [
                {
                  "internalType": "enum ItemType",
                  "name": "itemType",
                  "type": "uint8"
                },
                {
                  "internalType": "address",
                  "name": "token",
                  "type": "address"
                },
                {
                  "internalType": "uint256",
                  "name": "identifierOrCriteria",
                  "type": "uint256"
                },
                {
                  "internalType": "uint256",
                  "name": "startAmount",
                  "type": "uint256"
                },
                {
                  "internalType": "uint256",
                  "name": "endAmount",
                  "type": "uint256"
                }
              ],
              "internalType": "struct OfferItem[]",
              "name": "offer",
              "type": "tuple[]"
            },
            {
              "components": [
                {
                  "internalType": "enum ItemType",
                  "name": "itemType",
                  "type": "uint8"
                },
                {
                  "internalType": "address",
                  "name": "token",
                  "type": "address"
                },
                {
                  "internalType": "uint256",
                  "name": "identifierOrCriteria",
                  "type": "uint256"
                },
                {
                  "internalType": "uint256",
                  "name": "startAmount",
                  "type": "uint256"
                },
                {
                  "internalType": "uint256",
                  "name": "endAmount",
                  "type": "uint256"
                },
                {
                  "internalType": "address payable",
                  "name": "recipient",
                  "type": "address"
                }
              ],
              "internalType": "struct ConsiderationItem[]",
              "name": "consideration",
              "type": "tuple[]"
            },
            {
              "internalType": "enum OrderType",
              "name": "orderType",
              "type": "uint8"
            },
            {
              "internalType": "uint256",
              "name": "startTime",
              "type": "uint256"
            },
            {
              "internalType": "uint256",
              "name": "endTime",
              "type": "uint256"
            },
            {
              "internalType": "bytes32",
              "name": "zoneHash",
              "type": "bytes32"
            },
            {
              "internalType": "uint256",
              "name": "salt",
              "type": "uint256"
            },
            {
              "internalType": "bytes32",
              "name": "conduitKey",
              "type": "bytes32"
            },
            {
              "internalType": "uint256",
              "name": "counter",
              "type": "uint256"
            }
          ],
          "internalType": "struct OrderComponents",
          "name": "",
          "type": "tuple"
        }
      ],
      "stateMutability": "view",
      "type": "function"
    }
  ],
  "bytecode": {
    "object": "0x608060405234801561001057600080fd5b506106a7806100206000396000f3fe608060405234801561001057600080fd5b506004361061002b5760003560e01c8063b1f66bf414610030575b600080fd5b61003861004e565b604051610045919061055a565b60405180910390f35b6100566103b7565b61005e6103b7565b60006080820181905233825260208201524260a08201819052610083906103e8610634565b60c082015260646101008201526000610120820152600161014082018190526040805182815280820190915290816020015b6100f16040805160a08101909152806000815260200160006001600160a01b031681526020016000815260200160008152602001600081525090565b8152602001906001900390816100b557505060408201819052805173696383fc9c5c8568c2e7af8731279b58b920139491906000906101325761013261065b565b6020026020010151602001906001600160a01b031690816001600160a01b0316815250506002816040015160008151811061016f5761016f61065b565b602002602001015160000190600581111561018c5761018c610434565b9081600581111561019f5761019f610434565b81525050600181604001516000815181106101bc576101bc61065b565b60200260200101516060018181525050600181604001516000815181106101e5576101e561065b565b6020026020010151608001818152505061241b816040015160008151811061020f5761020f61065b565b60209081029190910101516040908101919091528051600180825281830190925290816020015b6040805160c08101825260008082526020808301829052928201819052606082018190526080820181905260a082015282526000199092019101816102365750506060820181905280516000919082906102925761029261065b565b60200260200101516000019060058111156102af576102af610434565b908160058111156102c2576102c2610434565b81525050600081606001516000815181106102df576102df61065b565b6020026020010151602001906001600160a01b031690816001600160a01b0316815250506000816060015160008151811061031c5761031c61065b565b60200260200101516040018181525050600081606001516000815181106103455761034561065b565b602002602001015160600181815250506000816060015160008151811061036e5761036e61065b565b602002602001015160800181815250503381606001516000815181106103965761039661065b565b60209081029190910101516001600160a01b0390911660a090910152919050565b60405180610160016040528060006001600160a01b0316815260200160006001600160a01b0316815260200160608152602001606081526020016000600381111561040457610404610434565b815260006020820181905260408201819052606082018190526080820181905260a0820181905260c09091015290565b634e487b7160e01b600052602160045260246000fd5b6006811061045a5761045a610434565b9052565b600081518084526020808501945080840160005b838110156104c857815161048788825161044a565b838101516001600160a01b03168885015260408082015190890152606080820151908901526080908101519088015260a09096019590820190600101610472565b509495945050505050565b600081518084526020808501945080840160005b838110156104c85781516104fc88825161044a565b808401516001600160a01b0390811689860152604080830151908a0152606080830151908a0152608080830151908a015260a091820151169088015260c090960195908201906001016104e7565b6004811061045a5761045a610434565b602081526105746020820183516001600160a01b03169052565b6000602083015161059060408401826001600160a01b03169052565b5060408301516101608060608501526105ad61018085018361045e565b91506060850151601f198584030160808601526105ca83826104d3565b92505060808501516105df60a086018261054a565b5060a085015160c085015260c085015160e085015260e0850151610100818187015280870151915050610120818187015280870151915050610140818187015280870151838701525050508091505092915050565b8082018082111561065557634e487b7160e01b600052601160045260246000fd5b92915050565b634e487b7160e01b600052603260045260246000fdfea2646970667358221220cb4808c57b8cf6b73a7d43ca2ba748837314f9ae2ae1ac8c6f6ff631347d618764736f6c63430008110033",
    "linkReferences": {}
  },
  "methodIdentifiers": {
    "generateOrder()": "b1f66bf4"
  },
  "id": 32
}