{
  "abi": [
    {
      "inputs": [
        {
          "internalType": "bytes32",
          "name": "_DOMAIN_SEPARATOR",
          "type": "bytes32"
        }
      ],
      "stateMutability": "nonpayable",
      "type": "constructor"
    },
    {
      "inputs": [],
      "name": "TRANSFER_TYPEHASH",
      "outputs": [
        {
          "internalType": "bytes32",
          "name": "",
          "type": "bytes32"
        }
      ],
      "stateMutability": "view",
      "type": "function"
    },
    {
      "inputs": [
        {
          "components": [
            {
              "internalType": "address",
              "name": "from",
              "type": "address"
            },
            {
              "internalType": "address",
              "name": "to",
              "type": "address"
            },
            {
              "internalType": "uint256",
              "name": "amount",
              "type": "uint256"
            },
            {
              "internalType": "uint256",
              "name": "nonce",
              "type": "uint256"
            },
            {
              "internalType": "uint256",
              "name": "deadline",
              "type": "uint256"
            }
          ],
          "internalType": "struct TransferParameters",
          "name": "_transfer",
          "type": "tuple"
        }
      ],
      "name": "getTypedDataHash",
      "outputs": [
        {
          "internalType": "bytes32",
          "name": "",
          "type": "bytes32"
        }
      ],
      "stateMutability": "view",
      "type": "function"
    }
  ],
  "bytecode": {
    "object": "0x608060405234801561001057600080fd5b5060405161028538038061028583398101604081905261002f91610037565b600055610050565b60006020828403121561004957600080fd5b5051919050565b6102268061005f6000396000f3fe608060405234801561001057600080fd5b50600436106100355760003560e01c8062bf26f41461003a578063ba20b89d14610073575b600080fd5b6100617f4144f681a2e4d6d2035dcbc0720f95d08cc1779083c71290e8a4bb4c1529f59e81565b60405190815260200160405180910390f35b610061610081366004610166565b6000805461008e836100ca565b60405161190160f01b6020820152602281019290925260428201526062015b604051602081830303815290604052805190602001209050919050565b60007f4144f681a2e4d6d2035dcbc0720f95d08cc1779083c71290e8a4bb4c1529f59e826000015183602001518460400151856060015186608001516040516020016100ad969594939291909586526001600160a01b0394851660208701529290931660408501526060840152608083019190915260a082015260c00190565b80356001600160a01b038116811461016157600080fd5b919050565b600060a0828403121561017857600080fd5b60405160a0810181811067ffffffffffffffff821117156101a957634e487b7160e01b600052604160045260246000fd5b6040526101b58361014a565b81526101c36020840161014a565b6020820152604083013560408201526060830135606082015260808301356080820152809150509291505056fea26469706673582212207fae939f31c7a36f9645089586e4fd3eca392b040aae7a233ebe99afeba426d264736f6c63430008110033",
    "linkReferences": {}
  },
  "methodIdentifiers": {
    "TRANSFER_TYPEHASH()": "00bf26f4",
    "getTypedDataHash((address,address,uint256,uint256,uint256))": "ba20b89d"
  },
  "id": 34
}